{
  "contractName": "Election",
  "abi": [
    {
      "constant": true,
      "inputs": [],
      "name": "chairperson",
      "outputs": [
        {
          "name": "",
          "type": "address"
        }
      ],
      "payable": false,
      "stateMutability": "view",
      "type": "function",
      "signature": "0x2e4176cf"
    },
    {
      "constant": false,
      "inputs": [],
      "name": "unpause",
      "outputs": [],
      "payable": false,
      "stateMutability": "nonpayable",
      "type": "function",
      "signature": "0x3f4ba83a"
    },
    {
      "constant": true,
      "inputs": [
        {
          "name": "account",
          "type": "address"
        }
      ],
      "name": "isPauser",
      "outputs": [
        {
          "name": "",
          "type": "bool"
        }
      ],
      "payable": false,
      "stateMutability": "view",
      "type": "function",
      "signature": "0x46fbf68e"
    },
    {
      "constant": true,
      "inputs": [
        {
          "name": "",
          "type": "address"
        }
      ],
      "name": "gurus",
      "outputs": [
        {
          "name": "name",
          "type": "bytes32"
        },
        {
          "name": "arrayIndex",
          "type": "uint256"
        }
      ],
      "payable": false,
      "stateMutability": "view",
      "type": "function",
      "signature": "0x482cf801"
    },
    {
      "constant": false,
      "inputs": [
        {
          "name": "_chairperson",
          "type": "address"
        }
      ],
      "name": "changeChairperson",
      "outputs": [],
      "payable": false,
      "stateMutability": "nonpayable",
      "type": "function",
      "signature": "0x53c3842b"
    },
    {
      "constant": true,
      "inputs": [],
      "name": "closed",
      "outputs": [
        {
          "name": "",
          "type": "bool"
        }
      ],
      "payable": false,
      "stateMutability": "view",
      "type": "function",
      "signature": "0x597e1fb5"
    },
    {
      "constant": true,
      "inputs": [],
      "name": "paused",
      "outputs": [
        {
          "name": "",
          "type": "bool"
        }
      ],
      "payable": false,
      "stateMutability": "view",
      "type": "function",
      "signature": "0x5c975abb"
    },
    {
      "constant": true,
      "inputs": [
        {
          "name": "",
          "type": "uint256"
        }
      ],
      "name": "gurusArray",
      "outputs": [
        {
          "name": "",
          "type": "address"
        }
      ],
      "payable": false,
      "stateMutability": "view",
      "type": "function",
      "signature": "0x68b91e2d"
    },
    {
      "constant": false,
      "inputs": [],
      "name": "renouncePauser",
      "outputs": [],
      "payable": false,
      "stateMutability": "nonpayable",
      "type": "function",
      "signature": "0x6ef8d66d"
    },
    {
      "constant": false,
      "inputs": [],
      "name": "renounceOwnership",
      "outputs": [],
      "payable": false,
      "stateMutability": "nonpayable",
      "type": "function",
      "signature": "0x715018a6"
    },
    {
      "constant": false,
      "inputs": [
        {
          "name": "account",
          "type": "address"
        }
      ],
      "name": "addPauser",
      "outputs": [],
      "payable": false,
      "stateMutability": "nonpayable",
      "type": "function",
      "signature": "0x82dc1ec4"
    },
    {
      "constant": false,
      "inputs": [],
      "name": "pause",
      "outputs": [],
      "payable": false,
      "stateMutability": "nonpayable",
      "type": "function",
      "signature": "0x8456cb59"
    },
    {
      "constant": true,
      "inputs": [],
      "name": "owner",
      "outputs": [
        {
          "name": "",
          "type": "address"
        }
      ],
      "payable": false,
      "stateMutability": "view",
      "type": "function",
      "signature": "0x8da5cb5b"
    },
    {
      "constant": true,
      "inputs": [],
      "name": "isOwner",
      "outputs": [
        {
          "name": "",
          "type": "bool"
        }
      ],
      "payable": false,
      "stateMutability": "view",
      "type": "function",
      "signature": "0x8f32d59b"
    },
    {
      "constant": false,
      "inputs": [
        {
          "name": "newOwner",
          "type": "address"
        }
      ],
      "name": "transferOwnership",
      "outputs": [],
      "payable": false,
      "stateMutability": "nonpayable",
      "type": "function",
      "signature": "0xf2fde38b"
    },
    {
      "inputs": [],
      "payable": false,
      "stateMutability": "nonpayable",
      "type": "constructor",
      "signature": "constructor"
    },
    {
      "anonymous": false,
      "inputs": [
        {
          "indexed": true,
          "name": "chairperson",
          "type": "address"
        }
      ],
      "name": "ElectionOpened",
      "type": "event",
      "signature": "0x4b262e336aa13d3604f3b9f35e3987dbb6e1d31e3a33291aaf3c151cf5b2968d"
    },
    {
      "anonymous": false,
      "inputs": [
        {
          "indexed": true,
          "name": "wallet",
          "type": "address"
        },
        {
          "indexed": false,
          "name": "name",
          "type": "bytes32"
        },
        {
          "indexed": true,
          "name": "addedBy",
          "type": "address"
        }
      ],
      "name": "GuruAdded",
      "type": "event",
      "signature": "0x2f134586d24725c7c501b839df8f612336c848b516262cca8c79185fce22df70"
    },
    {
      "anonymous": false,
      "inputs": [
        {
          "indexed": true,
          "name": "guruWallet",
          "type": "address"
        },
        {
          "indexed": true,
          "name": "voter",
          "type": "address"
        }
      ],
      "name": "Voted",
      "type": "event",
      "signature": "0xce0c7a2a940807f7dc2ce7a615c2532e915e6c0ac9a08bc4ed9d515a710a53e2"
    },
    {
      "anonymous": false,
      "inputs": [
        {
          "indexed": true,
          "name": "chairperson",
          "type": "address"
        }
      ],
      "name": "ElectionClosed",
      "type": "event",
      "signature": "0x0b58a262168e64f7399bbbf7f6af70c1653a375865ac71daafc2827150a215b0"
    },
    {
      "anonymous": false,
      "inputs": [
        {
          "indexed": true,
          "name": "previousChairperson",
          "type": "address"
        },
        {
          "indexed": true,
          "name": "newChairperson",
          "type": "address"
        }
      ],
      "name": "ChairpersonChanged",
      "type": "event",
      "signature": "0x0c94bd78906673549bca6b8028fe63bc67d94221969491c23a7b75ef2c796354"
    },
    {
      "anonymous": false,
      "inputs": [
        {
          "indexed": false,
          "name": "account",
          "type": "address"
        }
      ],
      "name": "Paused",
      "type": "event",
      "signature": "0x62e78cea01bee320cd4e420270b5ea74000d11b0c9f74754ebdbfc544b05a258"
    },
    {
      "anonymous": false,
      "inputs": [
        {
          "indexed": false,
          "name": "account",
          "type": "address"
        }
      ],
      "name": "Unpaused",
      "type": "event",
      "signature": "0x5db9ee0a495bf2e6ff9c91a7834c1ba4fdd244a5e8aa4e537bd38aeae4b073aa"
    },
    {
      "anonymous": false,
      "inputs": [
        {
          "indexed": true,
          "name": "account",
          "type": "address"
        }
      ],
      "name": "PauserAdded",
      "type": "event",
      "signature": "0x6719d08c1888103bea251a4ed56406bd0c3e69723c8a1686e017e7bbe159b6f8"
    },
    {
      "anonymous": false,
      "inputs": [
        {
          "indexed": true,
          "name": "account",
          "type": "address"
        }
      ],
      "name": "PauserRemoved",
      "type": "event",
      "signature": "0xcd265ebaf09df2871cc7bd4133404a235ba12eff2041bb89d9c714a2621c7c7e"
    },
    {
      "anonymous": false,
      "inputs": [
        {
          "indexed": true,
          "name": "previousOwner",
          "type": "address"
        },
        {
          "indexed": true,
          "name": "newOwner",
          "type": "address"
        }
      ],
      "name": "OwnershipTransferred",
      "type": "event",
      "signature": "0x8be0079c531659141344cd1fd0a4f28419497f9722a3daafe3b4186f6b6457e0"
    },
    {
      "constant": false,
      "inputs": [],
      "name": "close",
      "outputs": [],
      "payable": false,
      "stateMutability": "nonpayable",
      "type": "function",
      "signature": "0x43d726d6"
    },
    {
      "constant": true,
      "inputs": [],
      "name": "getGurusCount",
      "outputs": [
        {
          "name": "",
          "type": "uint256"
        }
      ],
      "payable": false,
      "stateMutability": "view",
      "type": "function",
      "signature": "0x8205d964"
    },
    {
      "constant": false,
      "inputs": [
        {
          "name": "_name",
          "type": "bytes32"
        },
        {
          "name": "_wallet",
          "type": "address"
        }
      ],
      "name": "addGuru",
      "outputs": [],
      "payable": false,
      "stateMutability": "nonpayable",
      "type": "function",
      "signature": "0x141f7436"
    },
    {
      "constant": false,
      "inputs": [
        {
          "name": "_name",
          "type": "bytes32"
        }
      ],
      "name": "beGuru",
      "outputs": [],
      "payable": false,
      "stateMutability": "nonpayable",
      "type": "function",
      "signature": "0xb50bffa3"
    },
    {
      "constant": false,
      "inputs": [
        {
          "name": "_wallet",
          "type": "address"
        }
      ],
      "name": "vote",
      "outputs": [],
      "payable": false,
      "stateMutability": "nonpayable",
      "type": "function",
      "signature": "0x6dd7d8ea"
    },
    {
      "constant": true,
      "inputs": [
        {
          "name": "_wallet",
          "type": "address"
        }
      ],
      "name": "getVotesCount",
      "outputs": [
        {
          "name": "",
          "type": "uint256"
        }
      ],
      "payable": false,
      "stateMutability": "view",
      "type": "function",
      "signature": "0xc19fe6c2"
    },
    {
      "constant": true,
      "inputs": [
        {
          "name": "_guruWallet",
          "type": "address"
        },
        {
          "name": "_voterWallet",
          "type": "address"
        }
      ],
      "name": "isElectedBy",
      "outputs": [
        {
          "name": "",
          "type": "bool"
        }
      ],
      "payable": false,
      "stateMutability": "view",
      "type": "function",
      "signature": "0xd6eb6285"
    }
  ],
  "bytecode": "0x60806040526002805460a860020a60ff021916905534801561002057600080fd5b5060008054600160a060020a0319163317808255604051600160a060020a039190911691907f8be0079c531659141344cd1fd0a4f28419497f9722a3daafe3b4186f6b6457e0908290a361007c336401000000006100c6810204565b60028054600160a860020a03191661010033908102919091179091556040517f4b262e336aa13d3604f3b9f35e3987dbb6e1d31e3a33291aaf3c151cf5b2968d90600090a26101a3565b6100de600182640100000000610f6961011582021704565b604051600160a060020a038216907f6719d08c1888103bea251a4ed56406bd0c3e69723c8a1686e017e7bbe159b6f890600090a250565b600160a060020a038116151561012a57600080fd5b61013d828264010000000061016c810204565b1561014757600080fd5b600160a060020a0316600090815260209190915260409020805460ff19166001179055565b6000600160a060020a038216151561018357600080fd5b50600160a060020a03166000908152602091909152604090205460ff1690565b610fe3806101b26000396000f3fe6080604052600436106101275763ffffffff7c0100000000000000000000000000000000000000000000000000000000600035041663141f7436811461012c5780632e4176cf146101675780633f4ba83a1461019857806343d726d6146101ad57806346fbf68e146101c2578063482cf8011461020957806353c3842b14610255578063597e1fb5146102885780635c975abb1461029d57806368b91e2d146102b25780636dd7d8ea146102dc5780636ef8d66d1461030f578063715018a6146103245780638205d9641461033957806382dc1ec4146103605780638456cb59146103935780638da5cb5b146103a85780638f32d59b146103bd578063b50bffa3146103d2578063c19fe6c2146103fc578063d6eb62851461042f578063f2fde38b1461046a575b600080fd5b34801561013857600080fd5b506101656004803603604081101561014f57600080fd5b5080359060200135600160a060020a031661049d565b005b34801561017357600080fd5b5061017c61053e565b60408051600160a060020a039092168252519081900360200190f35b3480156101a457600080fd5b50610165610552565b3480156101b957600080fd5b506101656105b6565b3480156101ce57600080fd5b506101f5600480360360208110156101e557600080fd5b5035600160a060020a031661064f565b604080519115158252519081900360200190f35b34801561021557600080fd5b5061023c6004803603602081101561022c57600080fd5b5035600160a060020a0316610668565b6040805192835260208301919091528051918290030190f35b34801561026157600080fd5b506101656004803603602081101561027857600080fd5b5035600160a060020a0316610681565b34801561029457600080fd5b506101f5610737565b3480156102a957600080fd5b506101f5610759565b3480156102be57600080fd5b5061017c600480360360208110156102d557600080fd5b5035610762565b3480156102e857600080fd5b50610165600480360360208110156102ff57600080fd5b5035600160a060020a031661078a565b34801561031b57600080fd5b50610165610a03565b34801561033057600080fd5b50610165610a0e565b34801561034557600080fd5b5061034e610a78565b60408051918252519081900360200190f35b34801561036c57600080fd5b506101656004803603602081101561038357600080fd5b5035600160a060020a0316610a7e565b34801561039f57600080fd5b50610165610a9e565b3480156103b457600080fd5b5061017c610b04565b3480156103c957600080fd5b506101f5610b13565b3480156103de57600080fd5b50610165600480360360208110156103f557600080fd5b5035610b24565b34801561040857600080fd5b5061034e6004803603602081101561041f57600080fd5b5035600160a060020a0316610b2e565b34801561043b57600080fd5b506101f56004803603604081101561045257600080fd5b50600160a060020a0381358116916020013516610b4c565b34801561047657600080fd5b506101656004803603602081101561048d57600080fd5b5035600160a060020a0316610b7e565b6002546101009004600160a060020a031633146104b957600080fd5b600160a060020a038116151561053057604080517f08c379a000000000000000000000000000000000000000000000000000000000815260206004820152600e60248201527f496e76616c69642077616c6c6574000000000000000000000000000000000000604482015290519081900360640190fd5b61053a8282610b9a565b5050565b6002546101009004600160a060020a031681565b61055b3361064f565b151561056657600080fd5b60025460ff16151561057757600080fd5b6002805460ff191690556040805133815290517f5db9ee0a495bf2e6ff9c91a7834c1ba4fdd244a5e8aa4e537bd38aeae4b073aa9181900360200190a1565b6002546101009004600160a060020a031633146105d257600080fd5b60025460ff16156105e257600080fd5b60405133907f0b58a262168e64f7399bbbf7f6af70c1653a375865ac71daafc2827150a215b090600090a2600280547fffffffffffffffffffff00ffffffffffffffffffffffffffffffffffffffffff167501000000000000000000000000000000000000000000179055565b600061066260018363ffffffff610dd916565b92915050565b6003602081905260009182526040909120805491015482565b610689610b13565b151561069457600080fd5b60025460ff16156106a457600080fd5b600160a060020a03811615156106b957600080fd5b600254604051600160a060020a0380841692610100900416907f0c94bd78906673549bca6b8028fe63bc67d94221969491c23a7b75ef2c79635490600090a360028054600160a060020a03909216610100027fffffffffffffffffffffff0000000000000000000000000000000000000000ff909216919091179055565b6002547501000000000000000000000000000000000000000000900460ff1681565b60025460ff1690565b600480548290811061077057fe5b600091825260209091200154600160a060020a0316905081565b6002547501000000000000000000000000000000000000000000900460ff161561081557604080517f08c379a000000000000000000000000000000000000000000000000000000000815260206004820152601260248201527f456c656374696f6e20697320636c6f7365640000000000000000000000000000604482015290519081900360640190fd5b60025460ff161561082557600080fd5b600160a060020a03811660009081526003602052604090205415156108ab57604080517f08c379a000000000000000000000000000000000000000000000000000000000815260206004820152601360248201527f4775727520646f6573206e6f7420657869737400000000000000000000000000604482015290519081900360640190fd5b600160a060020a038116600090815260036020908152604080832033845260010190915290205460ff161561096757604080517f08c379a000000000000000000000000000000000000000000000000000000000815260206004820152602360248201527f596f752068616420616c726561647920766f74656420666f722074686973206760448201527f7572750000000000000000000000000000000000000000000000000000000000606482015290519081900360840190fd5b6040513390600160a060020a038316907fce0c7a2a940807f7dc2ce7a615c2532e915e6c0ac9a08bc4ed9d515a710a53e290600090a3600160a060020a031660009081526003602081815260408084203380865260018281018552928620805460ff1916841790559383526002018054918201815584529220909101805473ffffffffffffffffffffffffffffffffffffffff19169091179055565b610a0c33610e10565b565b610a16610b13565b1515610a2157600080fd5b60008054604051600160a060020a03909116907f8be0079c531659141344cd1fd0a4f28419497f9722a3daafe3b4186f6b6457e0908390a36000805473ffffffffffffffffffffffffffffffffffffffff19169055565b60045490565b610a873361064f565b1515610a9257600080fd5b610a9b81610e58565b50565b610aa73361064f565b1515610ab257600080fd5b60025460ff1615610ac257600080fd5b6002805460ff191660011790556040805133815290517f62e78cea01bee320cd4e420270b5ea74000d11b0c9f74754ebdbfc544b05a2589181900360200190a1565b600054600160a060020a031690565b600054600160a060020a0316331490565b610a9b8133610b9a565b600160a060020a031660009081526003602052604090206002015490565b600160a060020a0391821660009081526003602090815260408083209390941682526001909201909152205460ff1690565b610b86610b13565b1515610b9157600080fd5b610a9b81610ea0565b6002547501000000000000000000000000000000000000000000900460ff1615610c2557604080517f08c379a000000000000000000000000000000000000000000000000000000000815260206004820152601260248201527f456c656374696f6e20697320636c6f7365640000000000000000000000000000604482015290519081900360640190fd5b60025460ff1615610c3557600080fd5b811515610ca357604080517f08c379a000000000000000000000000000000000000000000000000000000000815260206004820152601460248201527f4e616d652063616e6e6f7420626520626c61636b000000000000000000000000604482015290519081900360640190fd5b600160a060020a03811660009081526003602052604090205415610d2857604080517f08c379a000000000000000000000000000000000000000000000000000000000815260206004820152601660248201527f477572752077617320616c726561647920616464656400000000000000000000604482015290519081900360640190fd5b6040805183815290513391600160a060020a038416917f2f134586d24725c7c501b839df8f612336c848b516262cca8c79185fce22df709181900360200190a3600160a060020a0316600081815260036020819052604090912092835560048054600181019091557f8a35acfbc15ff81a39ae7d344fd709f28e8600b4aa8c65c6b64bfe7fe36bd19b8101805473ffffffffffffffffffffffffffffffffffffffff19169093179092559190910155565b6000600160a060020a0382161515610df057600080fd5b50600160a060020a03166000908152602091909152604090205460ff1690565b610e2160018263ffffffff610f1d16565b604051600160a060020a038216907fcd265ebaf09df2871cc7bd4133404a235ba12eff2041bb89d9c714a2621c7c7e90600090a250565b610e6960018263ffffffff610f6916565b604051600160a060020a038216907f6719d08c1888103bea251a4ed56406bd0c3e69723c8a1686e017e7bbe159b6f890600090a250565b600160a060020a0381161515610eb557600080fd5b60008054604051600160a060020a03808516939216917f8be0079c531659141344cd1fd0a4f28419497f9722a3daafe3b4186f6b6457e091a36000805473ffffffffffffffffffffffffffffffffffffffff1916600160a060020a0392909216919091179055565b600160a060020a0381161515610f3257600080fd5b610f3c8282610dd9565b1515610f4757600080fd5b600160a060020a0316600090815260209190915260409020805460ff19169055565b600160a060020a0381161515610f7e57600080fd5b610f888282610dd9565b15610f9257600080fd5b600160a060020a0316600090815260209190915260409020805460ff1916600117905556fea165627a7a72305820dfc43f84a13c90d962c8de7f08dadb80231c8672d31ec671e48317aba0949b890029",
  "source": "pragma solidity ^0.5.0;\n\nimport \"./ElectionBase.sol\";\n\n/// @title Election\n/// @notice Assumptions: A voter can vote for more than one guru wallet. \n/// However, the voter cannot vote for the same guru wallet more than once.\n/// And the given vote cannot be undone (this can be changed easily if needed).\ncontract Election is ElectionBase {\n    \n    /// @notice Election is opened once the contract is deployed\n    bool public closed = false;\n    \n    /// @dev The key of the mapping is the address (wallet) of a guru.\n    mapping (address => Guru) public gurus;\n    \n    /// @dev An array is used to be able to iterate over all gurus.\n    address[] public gurusArray;\n    \n    event ElectionOpened(address indexed chairperson);\n    event GuruAdded(address indexed wallet, bytes32 name, address indexed addedBy);\n    event Voted(address indexed guruWallet, address indexed voter);\n    event ElectionClosed(address indexed chairperson);\n    \n    modifier electionOpened() {\n        require(closed == false, \"Election is closed\");\n        _;\n    }\n    \n    struct  Guru {\n        /// @dev Bytes32 is used to store the name because it consumes less gas\n        bytes32 name; \n        mapping(address => bool) voters;\n        address[] votersList; //Save only the positive votes. So 'votersList.length' is the votes count.\n        \n        //'arrayIndex' is useful if delete a guru wallet is required (with the ability to iterate on all gurus wallets).\n        uint arrayIndex; //Index of the address of the guru wallet inside 'gurusArray'\n    }\n\n    constructor() ElectionBase() public {\n        emit ElectionOpened(msg.sender);\n    }\n\n    function close() public onlyChairperson whenNotPaused {\n        emit ElectionClosed(msg.sender);\n        closed = true;\n    }\n        \n    function getGurusCount() public view returns (uint) {\n        return gurusArray.length;\n    }\n\n    /// @notice Chairperson can add any guru\n    /// @dev The modfiers whenNotPaused & electionOpened are called\n    /// inside the sub-fuction _addGuru\n    function addGuru(bytes32 _name, address _wallet) public onlyChairperson {\n        require(_wallet != address(0x0), \"Invalid wallet\");\n        _addGuru(_name, _wallet);\n    }\n\n    /// @notice Receiving applications to become an investment guru\n    /// Anyone can add himself as an investment guru \n    /// @dev The modfier whenNotPaused is used inside the sub fuction _addGuru\n    function beGuru(bytes32 _name) public {\n        _addGuru(_name, msg.sender);\n    }\n    \n    /// @notice Only doable if election is not closed.\n    function _addGuru(bytes32 _name, address _wallet) private electionOpened whenNotPaused {\n        require(_name != 0, \"Name cannot be black\");\n        require(gurus[_wallet].name == 0, \"Guru was already added\");\n        \n        emit GuruAdded(_wallet, _name, msg.sender);\n        \n        gurus[_wallet].name = _name;\n        gurus[_wallet].arrayIndex = gurusArray.push(_wallet) - 1;\n    }\n\n    function vote(address _wallet) public electionOpened whenNotPaused {\n        require(gurus[_wallet].name != 0, \"Guru does not exist\"); //guru should be exist\n        require(gurus[_wallet].voters[msg.sender] == false, \"You had already voted for this guru\"); //The voter has not already voted\n        \n        emit Voted(_wallet, msg.sender);\n        \n        gurus[_wallet].voters[msg.sender] = true;\n        gurus[_wallet].votersList.push(msg.sender);\n    }\n    \n    function getVotesCount(address _wallet) public view returns (uint) {\n        return gurus[_wallet].votersList.length;\n    }\n    \n    function isElectedBy(address _guruWallet, address _voterWallet) public view returns (bool) {\n        return gurus[_guruWallet].voters[_voterWallet];\n    }\n\n}\n",
  "sourcePath": "/home/mhmazen/Source/repo/investorX/contracts/Election.sol",
  "compiler": {
    "name": "solc",
    "version": "0.5.0+commit.1d4f565a.Emscripten.clang"
  },
  "schemaVersion": "3.0.6",
  "updatedAt": "2019-04-24T12:51:41.188Z",
  "devdoc": {
    "methods": {
      "addGuru(bytes32,address)": {
        "details": "The modfiers whenNotPaused & electionOpened are called inside the sub-fuction _addGuru"
      },
      "beGuru(bytes32)": {
        "details": "The modfier whenNotPaused is used inside the sub fuction _addGuru"
      },
      "isOwner()": {
        "return": "true if `msg.sender` is the owner of the contract."
      },
      "owner()": {
        "return": "the address of the owner."
      },
      "pause()": {
        "details": "called by the owner to pause, triggers stopped state"
      },
      "paused()": {
        "return": "true if the contract is paused, false otherwise."
      },
      "renounceOwnership()": {
        "details": "Allows the current owner to relinquish control of the contract."
      },
      "transferOwnership(address)": {
        "details": "Allows the current owner to transfer control of the contract to a newOwner.",
        "params": {
          "newOwner": "The address to transfer ownership to."
        }
      },
      "unpause()": {
        "details": "called by the owner to unpause, returns to normal state"
      }
    },
    "title": "Election"
  },
  "userdoc": {
    "methods": {
      "addGuru(bytes32,address)": {
        "notice": "Chairperson can add any guru"
      },
      "beGuru(bytes32)": {
        "notice": "Receiving applications to become an investment guru Anyone can add himself as an investment guru "
      },
      "renounceOwnership()": {
        "notice": "Renouncing to ownership will leave the contract without an owner. It will not be possible to call the functions with the `onlyOwner` modifier anymore."
      }
    },
    "notice": "Assumptions: A voter can vote for more than one guru wallet.  However, the voter cannot vote for the same guru wallet more than once. And the given vote cannot be undone (this can be changed easily if needed)."
  }
}