{
  "contractName": "ElectionFactory",
  "abi": [
    {
      "constant": true,
      "inputs": [],
      "name": "chairperson",
      "outputs": [
        {
          "name": "",
          "type": "address"
        }
      ],
      "payable": false,
      "stateMutability": "view",
      "type": "function",
      "signature": "0x2e4176cf"
    },
    {
      "constant": false,
      "inputs": [],
      "name": "unpause",
      "outputs": [],
      "payable": false,
      "stateMutability": "nonpayable",
      "type": "function",
      "signature": "0x3f4ba83a"
    },
    {
      "constant": true,
      "inputs": [
        {
          "name": "account",
          "type": "address"
        }
      ],
      "name": "isPauser",
      "outputs": [
        {
          "name": "",
          "type": "bool"
        }
      ],
      "payable": false,
      "stateMutability": "view",
      "type": "function",
      "signature": "0x46fbf68e"
    },
    {
      "constant": false,
      "inputs": [
        {
          "name": "_chairperson",
          "type": "address"
        }
      ],
      "name": "changeChairperson",
      "outputs": [],
      "payable": false,
      "stateMutability": "nonpayable",
      "type": "function",
      "signature": "0x53c3842b"
    },
    {
      "constant": true,
      "inputs": [],
      "name": "paused",
      "outputs": [
        {
          "name": "",
          "type": "bool"
        }
      ],
      "payable": false,
      "stateMutability": "view",
      "type": "function",
      "signature": "0x5c975abb"
    },
    {
      "constant": true,
      "inputs": [
        {
          "name": "",
          "type": "uint256"
        }
      ],
      "name": "elections",
      "outputs": [
        {
          "name": "",
          "type": "address"
        }
      ],
      "payable": false,
      "stateMutability": "view",
      "type": "function",
      "signature": "0x5e6fef01"
    },
    {
      "constant": false,
      "inputs": [],
      "name": "renouncePauser",
      "outputs": [],
      "payable": false,
      "stateMutability": "nonpayable",
      "type": "function",
      "signature": "0x6ef8d66d"
    },
    {
      "constant": false,
      "inputs": [],
      "name": "renounceOwnership",
      "outputs": [],
      "payable": false,
      "stateMutability": "nonpayable",
      "type": "function",
      "signature": "0x715018a6"
    },
    {
      "constant": true,
      "inputs": [],
      "name": "currentBatch",
      "outputs": [
        {
          "name": "",
          "type": "uint256"
        }
      ],
      "payable": false,
      "stateMutability": "view",
      "type": "function",
      "signature": "0x76cd940e"
    },
    {
      "constant": false,
      "inputs": [
        {
          "name": "account",
          "type": "address"
        }
      ],
      "name": "addPauser",
      "outputs": [],
      "payable": false,
      "stateMutability": "nonpayable",
      "type": "function",
      "signature": "0x82dc1ec4"
    },
    {
      "constant": false,
      "inputs": [],
      "name": "pause",
      "outputs": [],
      "payable": false,
      "stateMutability": "nonpayable",
      "type": "function",
      "signature": "0x8456cb59"
    },
    {
      "constant": true,
      "inputs": [],
      "name": "owner",
      "outputs": [
        {
          "name": "",
          "type": "address"
        }
      ],
      "payable": false,
      "stateMutability": "view",
      "type": "function",
      "signature": "0x8da5cb5b"
    },
    {
      "constant": true,
      "inputs": [],
      "name": "isOwner",
      "outputs": [
        {
          "name": "",
          "type": "bool"
        }
      ],
      "payable": false,
      "stateMutability": "view",
      "type": "function",
      "signature": "0x8f32d59b"
    },
    {
      "constant": false,
      "inputs": [
        {
          "name": "newOwner",
          "type": "address"
        }
      ],
      "name": "transferOwnership",
      "outputs": [],
      "payable": false,
      "stateMutability": "nonpayable",
      "type": "function",
      "signature": "0xf2fde38b"
    },
    {
      "inputs": [],
      "payable": false,
      "stateMutability": "nonpayable",
      "type": "constructor",
      "signature": "constructor"
    },
    {
      "anonymous": false,
      "inputs": [
        {
          "indexed": true,
          "name": "chairperson",
          "type": "address"
        }
      ],
      "name": "ElectionCreated",
      "type": "event",
      "signature": "0x3bf25a9dfa34d3f99eec4217177ec490f7a345ee390de1e739e9c816a37122f0"
    },
    {
      "anonymous": false,
      "inputs": [
        {
          "indexed": true,
          "name": "factoryChairperson",
          "type": "address"
        },
        {
          "indexed": true,
          "name": "electionChairperson",
          "type": "address"
        }
      ],
      "name": "ElectionAdded",
      "type": "event",
      "signature": "0xa4db12bbd8af3cf1e704f6dca4638d558561f5bcb7118efeaa5484dfda7d3171"
    },
    {
      "anonymous": false,
      "inputs": [
        {
          "indexed": true,
          "name": "previousChairperson",
          "type": "address"
        },
        {
          "indexed": true,
          "name": "newChairperson",
          "type": "address"
        }
      ],
      "name": "ChairpersonChanged",
      "type": "event",
      "signature": "0x0c94bd78906673549bca6b8028fe63bc67d94221969491c23a7b75ef2c796354"
    },
    {
      "anonymous": false,
      "inputs": [
        {
          "indexed": false,
          "name": "account",
          "type": "address"
        }
      ],
      "name": "Paused",
      "type": "event",
      "signature": "0x62e78cea01bee320cd4e420270b5ea74000d11b0c9f74754ebdbfc544b05a258"
    },
    {
      "anonymous": false,
      "inputs": [
        {
          "indexed": false,
          "name": "account",
          "type": "address"
        }
      ],
      "name": "Unpaused",
      "type": "event",
      "signature": "0x5db9ee0a495bf2e6ff9c91a7834c1ba4fdd244a5e8aa4e537bd38aeae4b073aa"
    },
    {
      "anonymous": false,
      "inputs": [
        {
          "indexed": true,
          "name": "account",
          "type": "address"
        }
      ],
      "name": "PauserAdded",
      "type": "event",
      "signature": "0x6719d08c1888103bea251a4ed56406bd0c3e69723c8a1686e017e7bbe159b6f8"
    },
    {
      "anonymous": false,
      "inputs": [
        {
          "indexed": true,
          "name": "account",
          "type": "address"
        }
      ],
      "name": "PauserRemoved",
      "type": "event",
      "signature": "0xcd265ebaf09df2871cc7bd4133404a235ba12eff2041bb89d9c714a2621c7c7e"
    },
    {
      "anonymous": false,
      "inputs": [
        {
          "indexed": true,
          "name": "previousOwner",
          "type": "address"
        },
        {
          "indexed": true,
          "name": "newOwner",
          "type": "address"
        }
      ],
      "name": "OwnershipTransferred",
      "type": "event",
      "signature": "0x8be0079c531659141344cd1fd0a4f28419497f9722a3daafe3b4186f6b6457e0"
    },
    {
      "constant": false,
      "inputs": [],
      "name": "newElection",
      "outputs": [],
      "payable": false,
      "stateMutability": "nonpayable",
      "type": "function",
      "signature": "0xf68a3b10"
    },
    {
      "constant": false,
      "inputs": [
        {
          "name": "_electionContract",
          "type": "address"
        }
      ],
      "name": "addElection",
      "outputs": [],
      "payable": false,
      "stateMutability": "nonpayable",
      "type": "function",
      "signature": "0x694b98ce"
    },
    {
      "constant": false,
      "inputs": [],
      "name": "closeCurrentElection",
      "outputs": [],
      "payable": false,
      "stateMutability": "nonpayable",
      "type": "function",
      "signature": "0x25815d7d"
    }
  ],
  "bytecode": "0x6080604052600060035534801561001557600080fd5b5060008054600160a060020a0319163317808255604051600160a060020a039190911691907f8be0079c531659141344cd1fd0a4f28419497f9722a3daafe3b4186f6b6457e0908290a36100713364010000000061008c810204565b60028054600160a860020a0319166101003302179055610169565b6100a4600182640100000000610c8d6100db82021704565b604051600160a060020a038216907f6719d08c1888103bea251a4ed56406bd0c3e69723c8a1686e017e7bbe159b6f890600090a250565b600160a060020a03811615156100f057600080fd5b6101038282640100000000610132810204565b1561010d57600080fd5b600160a060020a0316600090815260209190915260409020805460ff19166001179055565b6000600160a060020a038216151561014957600080fd5b50600160a060020a03166000908152602091909152604090205460ff1690565b611ead806101786000396000f3fe6080604052600436106100f05763ffffffff7c010000000000000000000000000000000000000000000000000000000060003504166325815d7d81146100f55780632e4176cf1461010c5780633f4ba83a1461013d57806346fbf68e1461015257806353c3842b146101995780635c975abb146101cc5780635e6fef01146101e1578063694b98ce1461020b5780636ef8d66d1461023e578063715018a61461025357806376cd940e1461026857806382dc1ec41461028f5780638456cb59146102c25780638da5cb5b146102d75780638f32d59b146102ec578063f2fde38b14610301578063f68a3b1014610334575b600080fd5b34801561010157600080fd5b5061010a610349565b005b34801561011857600080fd5b506101216103f9565b60408051600160a060020a039092168252519081900360200190f35b34801561014957600080fd5b5061010a61040d565b34801561015e57600080fd5b506101856004803603602081101561017557600080fd5b5035600160a060020a0316610471565b604080519115158252519081900360200190f35b3480156101a557600080fd5b5061010a600480360360208110156101bc57600080fd5b5035600160a060020a031661048a565b3480156101d857600080fd5b50610185610540565b3480156101ed57600080fd5b506101216004803603602081101561020457600080fd5b5035610549565b34801561021757600080fd5b5061010a6004803603602081101561022e57600080fd5b5035600160a060020a0316610564565b34801561024a57600080fd5b5061010a6107c0565b34801561025f57600080fd5b5061010a6107cb565b34801561027457600080fd5b5061027d610835565b60408051918252519081900360200190f35b34801561029b57600080fd5b5061010a600480360360208110156102b257600080fd5b5035600160a060020a031661083b565b3480156102ce57600080fd5b5061010a61085b565b3480156102e357600080fd5b506101216108c1565b3480156102f857600080fd5b506101856108d0565b34801561030d57600080fd5b5061010a6004803603602081101561032457600080fd5b5035600160a060020a03166108e1565b34801561034057600080fd5b5061010a6108fd565b6002546101009004600160a060020a0316331461036557600080fd5b60025460ff161561037557600080fd5b60035460009081526004602081905260408083205481517f43d726d60000000000000000000000000000000000000000000000000000000081529151600160a060020a03909116936343d726d6938381019391929182900301818387803b1580156103df57600080fd5b505af11580156103f3573d6000803e3d6000fd5b50505050565b6002546101009004600160a060020a031681565b61041633610471565b151561042157600080fd5b60025460ff16151561043257600080fd5b6002805460ff191690556040805133815290517f5db9ee0a495bf2e6ff9c91a7834c1ba4fdd244a5e8aa4e537bd38aeae4b073aa9181900360200190a1565b600061048460018363ffffffff610afd16565b92915050565b6104926108d0565b151561049d57600080fd5b60025460ff16156104ad57600080fd5b600160a060020a03811615156104c257600080fd5b600254604051600160a060020a0380841692610100900416907f0c94bd78906673549bca6b8028fe63bc67d94221969491c23a7b75ef2c79635490600090a360028054600160a060020a03909216610100027fffffffffffffffffffffff0000000000000000000000000000000000000000ff909216919091179055565b60025460ff1690565b600460205260009081526040902054600160a060020a031681565b6002546101009004600160a060020a0316331461058057600080fd5b60025460ff161561059057600080fd5b600354156106c0576003546000908152600460208181526040928390205483517f597e1fb50000000000000000000000000000000000000000000000000000000081529351600160a060020a039091169363597e1fb593818101939291829003018186803b15801561060157600080fd5b505afa158015610615573d6000803e3d6000fd5b505050506040513d602081101561062b57600080fd5b505115156106c057604080517f08c379a000000000000000000000000000000000000000000000000000000000815260206004820152603a60248201527f5374617274696e67206e657720456c656374696f6e207265717569726573207460448201527f686174207468652070726576696f757320697320636c6f736564000000000000606482015290519081900360840190fd5b6003805460010190819055600090815260046020818152604092839020805473ffffffffffffffffffffffffffffffffffffffff1916600160a060020a03861690811790915583517f2e4176cf00000000000000000000000000000000000000000000000000000000815293519093632e4176cf93818101939291829003018186803b15801561074f57600080fd5b505afa158015610763573d6000803e3d6000fd5b505050506040513d602081101561077957600080fd5b5051600254604051600160a060020a0392831692610100909204909116907fa4db12bbd8af3cf1e704f6dca4638d558561f5bcb7118efeaa5484dfda7d317190600090a350565b6107c933610b34565b565b6107d36108d0565b15156107de57600080fd5b60008054604051600160a060020a03909116907f8be0079c531659141344cd1fd0a4f28419497f9722a3daafe3b4186f6b6457e0908390a36000805473ffffffffffffffffffffffffffffffffffffffff19169055565b60035481565b61084433610471565b151561084f57600080fd5b61085881610b7c565b50565b61086433610471565b151561086f57600080fd5b60025460ff161561087f57600080fd5b6002805460ff191660011790556040805133815290517f62e78cea01bee320cd4e420270b5ea74000d11b0c9f74754ebdbfc544b05a2589181900360200190a1565b600054600160a060020a031690565b600054600160a060020a0316331490565b6108e96108d0565b15156108f457600080fd5b61085881610bc4565b6002546101009004600160a060020a0316331461091957600080fd5b60025460ff161561092957600080fd5b60035415610a59576003546000908152600460208181526040928390205483517f597e1fb50000000000000000000000000000000000000000000000000000000081529351600160a060020a039091169363597e1fb593818101939291829003018186803b15801561099a57600080fd5b505afa1580156109ae573d6000803e3d6000fd5b505050506040513d60208110156109c457600080fd5b50511515610a5957604080517f08c379a000000000000000000000000000000000000000000000000000000000815260206004820152603a60248201527f5374617274696e67206e657720456c656374696f6e207265717569726573207460448201527f686174207468652070726576696f757320697320636c6f736564000000000000606482015290519081900360840190fd5b6003805460010190556000610a6c610cdb565b604051809103906000f080158015610a88573d6000803e3d6000fd5b50600354600090815260046020526040808220805473ffffffffffffffffffffffffffffffffffffffff1916600160a060020a0385811691909117909155600254915193945061010090910416917f3bf25a9dfa34d3f99eec4217177ec490f7a345ee390de1e739e9c816a37122f09190a250565b6000600160a060020a0382161515610b1457600080fd5b50600160a060020a03166000908152602091909152604090205460ff1690565b610b4560018263ffffffff610c4116565b604051600160a060020a038216907fcd265ebaf09df2871cc7bd4133404a235ba12eff2041bb89d9c714a2621c7c7e90600090a250565b610b8d60018263ffffffff610c8d16565b604051600160a060020a038216907f6719d08c1888103bea251a4ed56406bd0c3e69723c8a1686e017e7bbe159b6f890600090a250565b600160a060020a0381161515610bd957600080fd5b60008054604051600160a060020a03808516939216917f8be0079c531659141344cd1fd0a4f28419497f9722a3daafe3b4186f6b6457e091a36000805473ffffffffffffffffffffffffffffffffffffffff1916600160a060020a0392909216919091179055565b600160a060020a0381161515610c5657600080fd5b610c608282610afd565b1515610c6b57600080fd5b600160a060020a0316600090815260209190915260409020805460ff19169055565b600160a060020a0381161515610ca257600080fd5b610cac8282610afd565b15610cb657600080fd5b600160a060020a0316600090815260209190915260409020805460ff19166001179055565b6040516111958062000ced8339019056fe60806040526002805460a860020a60ff021916905534801561002057600080fd5b5060008054600160a060020a0319163317808255604051600160a060020a039190911691907f8be0079c531659141344cd1fd0a4f28419497f9722a3daafe3b4186f6b6457e0908290a361007c336401000000006100c6810204565b60028054600160a860020a03191661010033908102919091179091556040517f4b262e336aa13d3604f3b9f35e3987dbb6e1d31e3a33291aaf3c151cf5b2968d90600090a26101a3565b6100de600182640100000000610f6961011582021704565b604051600160a060020a038216907f6719d08c1888103bea251a4ed56406bd0c3e69723c8a1686e017e7bbe159b6f890600090a250565b600160a060020a038116151561012a57600080fd5b61013d828264010000000061016c810204565b1561014757600080fd5b600160a060020a0316600090815260209190915260409020805460ff19166001179055565b6000600160a060020a038216151561018357600080fd5b50600160a060020a03166000908152602091909152604090205460ff1690565b610fe3806101b26000396000f3fe6080604052600436106101275763ffffffff7c0100000000000000000000000000000000000000000000000000000000600035041663141f7436811461012c5780632e4176cf146101675780633f4ba83a1461019857806343d726d6146101ad57806346fbf68e146101c2578063482cf8011461020957806353c3842b14610255578063597e1fb5146102885780635c975abb1461029d57806368b91e2d146102b25780636dd7d8ea146102dc5780636ef8d66d1461030f578063715018a6146103245780638205d9641461033957806382dc1ec4146103605780638456cb59146103935780638da5cb5b146103a85780638f32d59b146103bd578063b50bffa3146103d2578063c19fe6c2146103fc578063d6eb62851461042f578063f2fde38b1461046a575b600080fd5b34801561013857600080fd5b506101656004803603604081101561014f57600080fd5b5080359060200135600160a060020a031661049d565b005b34801561017357600080fd5b5061017c61053e565b60408051600160a060020a039092168252519081900360200190f35b3480156101a457600080fd5b50610165610552565b3480156101b957600080fd5b506101656105b6565b3480156101ce57600080fd5b506101f5600480360360208110156101e557600080fd5b5035600160a060020a031661064f565b604080519115158252519081900360200190f35b34801561021557600080fd5b5061023c6004803603602081101561022c57600080fd5b5035600160a060020a0316610668565b6040805192835260208301919091528051918290030190f35b34801561026157600080fd5b506101656004803603602081101561027857600080fd5b5035600160a060020a0316610681565b34801561029457600080fd5b506101f5610737565b3480156102a957600080fd5b506101f5610759565b3480156102be57600080fd5b5061017c600480360360208110156102d557600080fd5b5035610762565b3480156102e857600080fd5b50610165600480360360208110156102ff57600080fd5b5035600160a060020a031661078a565b34801561031b57600080fd5b50610165610a03565b34801561033057600080fd5b50610165610a0e565b34801561034557600080fd5b5061034e610a78565b60408051918252519081900360200190f35b34801561036c57600080fd5b506101656004803603602081101561038357600080fd5b5035600160a060020a0316610a7e565b34801561039f57600080fd5b50610165610a9e565b3480156103b457600080fd5b5061017c610b04565b3480156103c957600080fd5b506101f5610b13565b3480156103de57600080fd5b50610165600480360360208110156103f557600080fd5b5035610b24565b34801561040857600080fd5b5061034e6004803603602081101561041f57600080fd5b5035600160a060020a0316610b2e565b34801561043b57600080fd5b506101f56004803603604081101561045257600080fd5b50600160a060020a0381358116916020013516610b4c565b34801561047657600080fd5b506101656004803603602081101561048d57600080fd5b5035600160a060020a0316610b7e565b6002546101009004600160a060020a031633146104b957600080fd5b600160a060020a038116151561053057604080517f08c379a000000000000000000000000000000000000000000000000000000000815260206004820152600e60248201527f496e76616c69642077616c6c6574000000000000000000000000000000000000604482015290519081900360640190fd5b61053a8282610b9a565b5050565b6002546101009004600160a060020a031681565b61055b3361064f565b151561056657600080fd5b60025460ff16151561057757600080fd5b6002805460ff191690556040805133815290517f5db9ee0a495bf2e6ff9c91a7834c1ba4fdd244a5e8aa4e537bd38aeae4b073aa9181900360200190a1565b6002546101009004600160a060020a031633146105d257600080fd5b60025460ff16156105e257600080fd5b60405133907f0b58a262168e64f7399bbbf7f6af70c1653a375865ac71daafc2827150a215b090600090a2600280547fffffffffffffffffffff00ffffffffffffffffffffffffffffffffffffffffff167501000000000000000000000000000000000000000000179055565b600061066260018363ffffffff610dd916565b92915050565b6003602081905260009182526040909120805491015482565b610689610b13565b151561069457600080fd5b60025460ff16156106a457600080fd5b600160a060020a03811615156106b957600080fd5b600254604051600160a060020a0380841692610100900416907f0c94bd78906673549bca6b8028fe63bc67d94221969491c23a7b75ef2c79635490600090a360028054600160a060020a03909216610100027fffffffffffffffffffffff0000000000000000000000000000000000000000ff909216919091179055565b6002547501000000000000000000000000000000000000000000900460ff1681565b60025460ff1690565b600480548290811061077057fe5b600091825260209091200154600160a060020a0316905081565b6002547501000000000000000000000000000000000000000000900460ff161561081557604080517f08c379a000000000000000000000000000000000000000000000000000000000815260206004820152601260248201527f456c656374696f6e20697320636c6f7365640000000000000000000000000000604482015290519081900360640190fd5b60025460ff161561082557600080fd5b600160a060020a03811660009081526003602052604090205415156108ab57604080517f08c379a000000000000000000000000000000000000000000000000000000000815260206004820152601360248201527f4775727520646f6573206e6f7420657869737400000000000000000000000000604482015290519081900360640190fd5b600160a060020a038116600090815260036020908152604080832033845260010190915290205460ff161561096757604080517f08c379a000000000000000000000000000000000000000000000000000000000815260206004820152602360248201527f596f752068616420616c726561647920766f74656420666f722074686973206760448201527f7572750000000000000000000000000000000000000000000000000000000000606482015290519081900360840190fd5b6040513390600160a060020a038316907fce0c7a2a940807f7dc2ce7a615c2532e915e6c0ac9a08bc4ed9d515a710a53e290600090a3600160a060020a031660009081526003602081815260408084203380865260018281018552928620805460ff1916841790559383526002018054918201815584529220909101805473ffffffffffffffffffffffffffffffffffffffff19169091179055565b610a0c33610e10565b565b610a16610b13565b1515610a2157600080fd5b60008054604051600160a060020a03909116907f8be0079c531659141344cd1fd0a4f28419497f9722a3daafe3b4186f6b6457e0908390a36000805473ffffffffffffffffffffffffffffffffffffffff19169055565b60045490565b610a873361064f565b1515610a9257600080fd5b610a9b81610e58565b50565b610aa73361064f565b1515610ab257600080fd5b60025460ff1615610ac257600080fd5b6002805460ff191660011790556040805133815290517f62e78cea01bee320cd4e420270b5ea74000d11b0c9f74754ebdbfc544b05a2589181900360200190a1565b600054600160a060020a031690565b600054600160a060020a0316331490565b610a9b8133610b9a565b600160a060020a031660009081526003602052604090206002015490565b600160a060020a0391821660009081526003602090815260408083209390941682526001909201909152205460ff1690565b610b86610b13565b1515610b9157600080fd5b610a9b81610ea0565b6002547501000000000000000000000000000000000000000000900460ff1615610c2557604080517f08c379a000000000000000000000000000000000000000000000000000000000815260206004820152601260248201527f456c656374696f6e20697320636c6f7365640000000000000000000000000000604482015290519081900360640190fd5b60025460ff1615610c3557600080fd5b811515610ca357604080517f08c379a000000000000000000000000000000000000000000000000000000000815260206004820152601460248201527f4e616d652063616e6e6f7420626520626c61636b000000000000000000000000604482015290519081900360640190fd5b600160a060020a03811660009081526003602052604090205415610d2857604080517f08c379a000000000000000000000000000000000000000000000000000000000815260206004820152601660248201527f477572752077617320616c726561647920616464656400000000000000000000604482015290519081900360640190fd5b6040805183815290513391600160a060020a038416917f2f134586d24725c7c501b839df8f612336c848b516262cca8c79185fce22df709181900360200190a3600160a060020a0316600081815260036020819052604090912092835560048054600181019091557f8a35acfbc15ff81a39ae7d344fd709f28e8600b4aa8c65c6b64bfe7fe36bd19b8101805473ffffffffffffffffffffffffffffffffffffffff19169093179092559190910155565b6000600160a060020a0382161515610df057600080fd5b50600160a060020a03166000908152602091909152604090205460ff1690565b610e2160018263ffffffff610f1d16565b604051600160a060020a038216907fcd265ebaf09df2871cc7bd4133404a235ba12eff2041bb89d9c714a2621c7c7e90600090a250565b610e6960018263ffffffff610f6916565b604051600160a060020a038216907f6719d08c1888103bea251a4ed56406bd0c3e69723c8a1686e017e7bbe159b6f890600090a250565b600160a060020a0381161515610eb557600080fd5b60008054604051600160a060020a03808516939216917f8be0079c531659141344cd1fd0a4f28419497f9722a3daafe3b4186f6b6457e091a36000805473ffffffffffffffffffffffffffffffffffffffff1916600160a060020a0392909216919091179055565b600160a060020a0381161515610f3257600080fd5b610f3c8282610dd9565b1515610f4757600080fd5b600160a060020a0316600090815260209190915260409020805460ff19169055565b600160a060020a0381161515610f7e57600080fd5b610f888282610dd9565b15610f9257600080fd5b600160a060020a0316600090815260209190915260409020805460ff1916600117905556fea165627a7a72305820dfc43f84a13c90d962c8de7f08dadb80231c8672d31ec671e48317aba0949b890029a165627a7a72305820b5a54b38465d4769472cb17672a706417ec0f86677bc1bdb5c83b2e8b77ca46c0029",
  "source": "pragma solidity ^0.5.0;\n\nimport \"./ElectionBase.sol\";\nimport \"./Election.sol\";\n\n/// @title Generates and keeps tracking of Elections smart contracts.\n/// @notice The chairperson of the factory is responsible of creating \n/// and adding the Elections smart contracts.\n/// @dev The chairperson, in this contract, could be different from \n/// the chairperson of each election.\n\ncontract ElectionFactory is ElectionBase {\n    uint public currentBatch = 0; // Default is 0. But, setting it to 0 is just to make a clearer code\n    \n    mapping (uint => address) public elections;\n    \n    event ElectionCreated(address indexed chairperson);\n    event ElectionAdded(address indexed factoryChairperson, address indexed electionChairperson);\n    \n    /// @notice enforce running only one election at a time\n    modifier latestElectionClosed() {\n        if(currentBatch != 0)\n            require(Election(elections[currentBatch]).closed(),\n                \"Starting new Election requires that the previous is closed\");\n        _;\n    }\n\n    constructor() ElectionBase() public {\n    }\n    \n    function newElection() \n        public \n        onlyChairperson\n        whenNotPaused\n        latestElectionClosed\n    {\n        currentBatch++;\n        Election election = new Election();\n        elections[currentBatch] = address(election);\n        emit ElectionCreated(chairperson);\n    }\n    \n    /// @notice This is used if the Chairperson is willing to add a contract that is\n    /// deffirent from the current one, but compatible with it.\n    /// @dev This method is added to allow for upgreadablity. If a new version of Election contract is impelmented, \n    /// the new Election contract implemenation has to be compatible with the current one.\n    function addElection(address _electionContract) \n        public \n        onlyChairperson\n        whenNotPaused\n        latestElectionClosed\n    {\n        currentBatch++;\n        elections[currentBatch] = _electionContract;\n        emit ElectionAdded(chairperson, Election(_electionContract).chairperson());\n    }\n    \n    /// @notice This is just a wrapper functions because elections \n    /// could be also closed by directly calling 'close()'\n    /// at the Election smart contract.\n    /// @dev This funciton will revert if the current Election's chairperson \n    /// is not the same as the factory chairperson.\n    function closeCurrentElection() public onlyChairperson whenNotPaused {\n        // No need to put require(currentBatch !=0) because exction will fail then in all ways.\n        Election(elections[currentBatch]).close();\n    }\n}",
  "sourcePath": "/home/mhmazen/Source/repo/investorX/contracts/ElectionFactory.sol",
  "compiler": {
    "name": "solc",
    "version": "0.5.0+commit.1d4f565a.Emscripten.clang"
  },
  "schemaVersion": "3.0.6",
  "updatedAt": "2019-04-24T07:24:44.720Z",
  "devdoc": {
    "details": "The chairperson, in this contract, could be different from  the chairperson of each election.",
    "methods": {
      "addElection(address)": {
        "details": "This method is added to allow for upgreadablity. If a new version of Election contract is impelmented,  the new Election contract implemenation has to be compatible with the current one."
      },
      "closeCurrentElection()": {
        "details": "This funciton will revert if the current Election's chairperson  is not the same as the factory chairperson."
      },
      "isOwner()": {
        "return": "true if `msg.sender` is the owner of the contract."
      },
      "owner()": {
        "return": "the address of the owner."
      },
      "pause()": {
        "details": "called by the owner to pause, triggers stopped state"
      },
      "paused()": {
        "return": "true if the contract is paused, false otherwise."
      },
      "renounceOwnership()": {
        "details": "Allows the current owner to relinquish control of the contract."
      },
      "transferOwnership(address)": {
        "details": "Allows the current owner to transfer control of the contract to a newOwner.",
        "params": {
          "newOwner": "The address to transfer ownership to."
        }
      },
      "unpause()": {
        "details": "called by the owner to unpause, returns to normal state"
      }
    },
    "title": "Generates and keeps tracking of Elections smart contracts."
  },
  "userdoc": {
    "methods": {
      "addElection(address)": {
        "notice": "This is used if the Chairperson is willing to add a contract that is deffirent from the current one, but compatible with it."
      },
      "closeCurrentElection()": {
        "notice": "This is just a wrapper functions because elections  could be also closed by directly calling 'close()' at the Election smart contract."
      },
      "renounceOwnership()": {
        "notice": "Renouncing to ownership will leave the contract without an owner. It will not be possible to call the functions with the `onlyOwner` modifier anymore."
      }
    },
    "notice": "The chairperson of the factory is responsible of creating  and adding the Elections smart contracts."
  }
}